:020000040800F2
:1000000000000220D5F2000825F3000825F30008BF
:1000100025F3000825F3000825F300080000000080
:10002000000000000000000000000000412F000858
:1000300025F3000800000000A12F0008053000088B
:1000400025F3000825F3000825F3000825F3000830
:1000500025F3000825F3000825F3000825F3000820
:1000600025F3000825F3000825F3000825F3000810
:1000700025F3000825F3000825F3000825F3000800
:1000800025F3000825F3000825F3000825F30008F0
:1000900025F3000825F3000825F3000825F30008E0
:1000A00025F3000825F3000825F3000825F30008D0
:1000B00025F3000825F3000825F3000825F30008C0
:1000C00025F3000825F3000825F3000825F30008B0
:1000D00025F3000825F3000825F3000825F30008A0
:1000E00025F3000825F3000825F3000825F3000890
:1000F00025F3000825F3000825F3000825F3000880
:1001000025F3000825F3000825F3000825F300086F
:1001100025F3000825F3000825F3000825F300085F
:1001200025F3000825F300080D0B000825F300084F
:1001300025F3000825F3000825F3000825F300083F
:1001400025F3000825F3000825F3000825F300082F
:1001500025F3000825F3000825F3000825F300081F
:1001600025F3000825F3000825F3000825F300080F
:1001700025F3000825F3000825F30008000000001F
:1001800025F3000825F3000825F3000825F30008EF
:1001900025F3000825F3000825F3000800000000FF
:0C01A00025F3000825F3000825F30008F3
:1001B00010B5054C237833B9044B13B10448AFF3A1
:1001C00000800123237010BD3001002000000000DA
:1001D000B40B010808B5034B1BB103490348AFF347
:1001E000008008BD0000000034010020B40B0108AD
:1001F00010F8012B11F8013B012A28BF9A42F7D0D1
:10020000D01A7047034613F8012B002AFBD1181AA5
:1002100001387047000000000000000000000000EE
:1002200001F0FF01102A2BDB10F0070F08D010F8A7
:10023000013B013A8B422DD010F0070F42B3F6D1AB
:10024000F0B441EA012141EA014122F007047FF0C4
:1002500000070023F0E80256083C85EA010586EA1B
:10026000010685FA47F5A3FA87F586FA47F6A5FA57
:1002700087F68EB9EED1F0BC01F0FF0102F0070263
:1002800032B110F8013B013A83EA010313B1F8D10E
:100290000020704701387047002D06BF35460338EF
:1002A000073815F0010F07D1013015F4807F02BF28
:1002B000013015F4C03F0130F0BC0138704700BF79
:1002C0007BB972B90029BEBF00204FF0004106E0A3
:1002D00008BF00281CBF6FF000414FF0FF3000F056
:1002E00011BAADF1080C6DE904CE002909DB002B31
:1002F0001ADB00F04DF8DDF804E0DDE9022304B07C
:100300007047404261EB4101002B1BDB00F040F8DD
:10031000DDF804E0DDE9022304B0404261EB410175
:10032000524263EB43037047524263EB430300F0D6
:100330002FF8DDF804E0DDE9022304B0404261EB70
:1003400041017047524263EB430300F021F8DDF8AE
:1003500004E0DDE9022304B0524263EB430370473B
:1003600053B94AB9002908BF00281CBF4FF0FF311C
:100370004FF0FF3000F0C6B9ADF1080C6DE904CEC6
:1003800000F006F8DDF804E0DDE9022304B0704770
:100390002DE9F047089E04468846002B40F08580F2
:1003A0008A42154648D9B2FA82F24AB1C2F1200710
:1003B00001FA02F320FA07F7954047EA0308944050
:1003C0004FEA154E230CB8FBFEF71FFA85FC0EFB17
:1003D000178843EA084307FB0CF1994209D9EB1847
:1003E00007F1FF3080F0E380994240F2E080023F65
:1003F0002B445B1AA4B2B3FBFEF00EFB103344EAAD
:10040000034400FB0CFCA44509D92C1900F1FF336F
:1004100080F0CB80A44540F2C88002382C4440EAEA
:100420000740A4EB0C0400271EB1D4400023C6E90A
:1004300000433946BDE8F087002A53D0B2FA82F271
:10044000002A40F0B680491B4FEA154E1FFA85F886
:100450000127B1FBFEFC230C0EFB1C1143EA0143F8
:1004600008FB0CF1994207D9EB180CF1FF3002D2CE
:10047000994200F2EC808446591AA3B2B1FBFEF017
:100480000EFB101443EA044408FB00F8A04507D90A
:100490002C1900F1FF3302D2A04500F2DC8018468F
:1004A000A4EB080440EA0C40BEE78B4208D9002EBA
:1004B00078D00027C6E9000138463946BDE8F08704
:1004C000B3FA83F77FB98B4202D3824200F2BD8038
:1004D000841A61EB030301209846002EA9D0C6E9D7
:1004E0000048A6E7FFDEC7F12005BB4022FA05FC65
:1004F0004CEA030C01FA07F420FA05F821FA05F397
:100500004FEA1C4E48EA0404B3FBFEF9210C0EFB33
:1005100019331FFA8CF841EA034309FB08FA9A459C
:1005200002FA07F200FA07F10BD91CEB030309F1F9
:10053000FF3080F088809A4540F28580A9F1020959
:100540006344A3EB0A03A4B2B3FBFEF00EFB10332B
:1005500044EA034400FB08F8A04508D91CEB040456
:1005600000F1FF336BD2A04569D90238644440EAF8
:100570000940A4EB0804A0FB02894C45C6464B4643
:1005800054D351D0002E69D0B1EB0E0264EB0304BA
:1005900004FA05F522FA07F3FC401D43C6E90054AE
:1005A000002746E73746304643E7184637E7074611
:1005B0001FE7C2F1200320FA03F7954001FA02F089
:1005C00021FA03F34FEA154E3843010CB3FBFEF753
:1005D0001FFA85F80EFB173341EA034107FB08F3C6
:1005E0008B4204FA02F407D9691807F1FF3C28D2BC
:1005F0008B4226D9023F2944CB1A81B2B3FBFEF0CD
:100600000EFB103341EA034100FB08F38B4207D98C
:10061000691800F1FF3C10D28B420ED902382944F0
:10062000C91A40EA074714E74145ABD2B8EB020EBE
:1006300069EB0C0201381346A4E76046F0E7184660
:1006400095E76746D8E781467BE7384645E7ACF152
:10065000020C2B4410E702382C4421E73746E8E629
:100660000020704770B5D0E90064042C05460ED810
:10067000301D0EF0CBFEF8B1E9680060031D324674
:100680001846A1B10EF0D2FE0346184670BDA0195F
:1006900003300EF0BBFE78B1E31C034464422340F8
:1006A000324643F8040CE96818460029EAD10EF0F6
:1006B000E5FE0346184670BD10F020FA10B504465A
:1006C000FFF7CEFF38B9A06800B110BD2046FFF794
:1006D000C9FFA06010BD10F011FA00BF10B404688B
:1006E0008C4202D200240160C4604468944238BF46
:1006F00042601BB102688A4208BFC3605DF8044BC8
:10070000704700BF704700BF38B54FF4406000F03D
:1007100015FA40F6044000F011FA134D4FF400436F
:1007200000220121284600F0A3FA4FF400430222E0
:100730000021284600F0BFFA0C4C3823002201218A
:10074000204600F095FA382302220021204600F0CE
:10075000B2FA4FF40041284600F0D1FA3821204681
:1007600000F0CDFA38BD00BF00000240001002408A
:1007700010B540F6164000F0E1F9054C0221204684
:1007800000F0EFFA0721204600F0EBFA10BD00BFA1
:100790000064024010B541F2041000F0CFF9264C7D
:1007A0004FF4C0620721204600F0ABFA4FF400730B
:1007B00001220221204600F05BFA4FF4007302226E
:1007C0000021204600F077FA4FF4806300221146A2
:1007D000204600F04DFA4FF48063022203212046A8
:1007E00000F069FAA4F57044204600F0D5FC002121
:1007F000204600F0AFFD0021204600F0B3FD0021AF
:10080000204600F09FFD4FF4E131204600F034FD1A
:100810000421204600F0B9FD0821204600F0AFFD7C
:100820000021204600F0BBFD0021204600F0BDFD68
:10083000204600F09FFD10BD0000024010B541F2BF
:10084000110000F07BF9244C0C220721204600F017
:1008500058FA042301220221204600F009FA042359
:1008600002220021204600F026FA08230022114629
:10087000204600F0FDF9082302220321204600F063
:100880001AFAA4F5DE34204600F086FC002120464A
:1008900000F060FD0021204600F064FD00212046AC
:1008A00000F050FD4FF4E131204600F0E5FC04215A
:1008B000204600F06AFD0821204600F060FD00217E
:1008C000204600F06CFD0021204600F06EFD204621
:1008D00000F050FD10BD00BF0000024030B5ADF586
:1008E0000F7D414B0193414B0093414B414A002105
:1008F000012004F01BF989A803F070FE3E4B899398
:100900003E4B8A933E4B8B933E4B8C9389A803F0CE
:1009100073FE60B32022002181A80EF0AFFD3A4D96
:10092000809545F6C05385931823869380AA0021AD
:10093000364802F01DFA4FF4FA7002F085FA03A867
:1009400001F082FF324C20460EF0DCFE31480EF002
:10095000D9FE20460EF0D6FE03A80EF04DFE20462E
:100960000EF0D0FE284601F033FD054618E04FF4A6
:10097000A47129480EF040FECCE7284C4FF400410A
:10098000204600F0BAF94FF47A7002F05DFA4FF4A5
:100990000041204600F0B3F94FF47A7002F054FAA7
:1009A000284601F081FB0328E7D01D4C3821204662
:1009B00000F0A5F9642002F047FA3821204600F043
:1009C0009CF9642002F040FA3821204600F097F9A3
:1009D000962002F039FA3821204600F08EF94FF4C3
:1009E000FA7002F031FADBE741360008E135000821
:1009F000C53500082D35000889340008A9340008E1
:100A0000C934000809350008200C010869370008BE
:100A1000300C0108540C0108F80B010800000240DA
:100A20000010024010B50446C1B2054800F0B3FC06
:100A30000721034800F0CBFC0028F9D0204610BD68
:100A40000044004070B50C4616460025B54205DA54
:100A500014F8010BFFF7E6FF0135F7E7304670BDEC
:100A600008B54FF4407000F0BFFC214BDB68C3F3C6
:100A70000223C3F10701042928BF04211A1D062AF5
:100A800034D9DA1E4FF0FF338B40DB4303F00F0302
:100A900093401B01DBB2164A82F82230154B1B68CB
:100AA000154AA2FB03239B09013BB3F1807F09D2C6
:100AB000124A53600E4BF02183F8231000239360F9
:100AC00007231360FFF720FEFFF752FEFFF762FED9
:100AD000FFF7B4FE02F00AF9094A0021094802F0C2
:100AE00047F9094B186002F01FF9FEE70022C9E739
:100AF00000ED00E000000020D34D621010E000E0A7
:100B0000780C0108DD080008BCDB002008B52022B5
:100B10000221084800F01CFA012800D008BD20225C
:100B20000221044800F003FB4021034800F043FC8D
:100B3000F4E700BF0064024000100140830903F1A4
:100B4000804303F50E331A6800F01F00012101FAFB
:100B500000F002431A607047830903F1804303F5F4
:100B60000E331A6800F01F00012101FA00F0024361
:100B70001A607047830903F1804303F50E331A6846
:100B800000F01F00012101FA00F022EA00021A60C1
:100B90007047000030B488B00546304C94E80F0030
:100BA0000DF1200C0CE90F0002AB103494E80300A7
:100BB00083E803006B4683E80300294B1B68C3F3FB
:100BC0008103012B1BD0022B1BD126490C6804F09A
:100BD0003F040A68C2F388120868C0F3014001307C
:100BE0004300096811F4800F07D01F48B0FBF4F0F0
:100BF00002FB00F0B0FBF3F004E01C48F6E71A48F3
:100C000000E01A4816490B68C3F3031308AA1344FB
:100C100013F8102C20FA02F20B68C3F3822308ACFD
:100C2000234413F8183C22FA03F40B68C3F342334D
:100C300008A90B4413F8203C22FA03F3032D03D830
:100C4000DFE805F00504080A002000E0104608B0BF
:100C500030BC70472046FAE71846F8E7D00B010889
:100C6000083802400438024040787D010024F40036
:100C7000F0B59C460368D0F80CE0002401E0013494
:100C8000A4B20F2C13D80126A64016EA0C0FF6D0FA
:100C900067000326BE40F5432B4001FA07F63343B5
:100CA00005EA0E0502FA07F747EA050EE7E70360D3
:100CB000C0F80CE0F0BD70B4012906D0416821EA0B
:100CC000030141608568002105E0416819434160E6
:100CD000F8E7013189B20F290CD801248C401C425D
:100CE000F7D04C000326A64025EA060502FA04F4D4
:100CF0002543EEE7856070BC704781617047816273
:100D00007047F0B4066A476A002301E001339BB2E2
:100D1000072B0CD801259D401542F7D09D000F24CC
:100D2000AC4026EA040601FA05F52E43EEE7082357
:100D300001E001339BB20F2B0FD801259D401542D6
:100D4000F7D003F18044083CA4000F25A54027EA12
:100D5000050701FA04F42743EBE706624762F0BC9B
:100D6000704710B401EB4102D30003441A6922F02A
:100D700001021A6100221A615A619A61DA611A62EB
:100D80005A6203290FD8826801EB41046300C1F362
:100D9000400103EB81013D2303FA01F10A43826024
:100DA0005DF8044B70470439C9B2C26801EB4104D5
:100DB0006300C1F3400103EB81013D2303FA01F11C
:100DC0001143C160ECE710B401EB4101CB001844C2
:100DD000436A23F004034362136883619368C36129
:100DE000D3694361016921F45E3121F0C0011369C7
:100DF00043EA8303146A2343946923430B43036147
:100E0000536893B9036943F400730361D368C3B9AA
:100E1000036943F4806303615369BBB9036943F415
:100E2000807303615DF8044B7047012B04D00369A4
:100E300043F400430361E9E7036923F400730361AA
:100E4000E4E7036923F480630361E5E7036923F4BE
:100E500080730361E6E72AB101EB4101CA00024455
:100E60001362704701EB4101CA000244D36170472D
:100E700001EB4101CB0018444261704701EB410195
:100E8000CB0018444069704701EB4101CB00184486
:100E9000036943F001030361704701EB4101CB009B
:100EA0001844036923F001030361704701EB41011A
:100EB000CB001844036923F0606343EA4262026195
:100EC000704710B403290FD8046801EB41004300B8
:100ED000C1F3400103EB810102FA01F10C4213D08E
:100EE00001205DF8044B70470439C9B2446801EB36
:100EF00041004300C1F3400103EB810102FA01F11B
:100F00000C4203D00120ECE70020EAE70020E8E7EC
:100F100030B403290DD8846801EB41056B00C1F39F
:100F2000400103EB810102FA01F12143816030BCF1
:100F300070470439C9B2C46801EB41056B00C1F3C5
:100F4000400103EB810102FA01F12143C160EEE7A8
:100F500070B4032971D8541E1F2C00F2DF80DFE823
:100F600004F010DDDD28DDDDDD39DDDDDDDDDDDD9D
:100F7000DD4ADDDDDDDDDDDDDDDDDDDDDDDDDDDD34
:100F8000DD5B06684C0065186B00C1F3400503EBA0
:100F900085039A4032402144CB001844436A03F051
:100FA0008003002A00F0BE80002B40F0BE800020AD
:100FB000B9E006684C0065186B00C1F3400503EB0F
:100FC00085039A4032402144CB001844036903F062
:100FD0000203E6E706684C0065186B00C1F34005A4
:100FE00003EB85039A4032402144CB001844036947
:100FF00003F00403D5E706684C0065186B00C1F3E5
:10100000400503EB85039A4032402144CB0018444D
:10101000036903F00803C4E706684C0065186B0019
:10102000C1F3400503EB85039A4032402144CB00D5
:101030001844036903F01003B3E70B1FDBB2541E1F
:101040001F2C6DD8DFE804F0106C6C226C6C6C34D3
:101050006C6C6C6C6C6C6C466C6C6C6C6C6C6C6CF6
:101060006C6C6C6C6C6C6C58466803EB43056C00E4
:10107000C3F3400304EB8304A240324001EB41017F
:10108000CB001844436A03F080038AE7466803EB09
:1010900043056C00C3F3400304EB8304A2403240D9
:1010A00001EB4101CB001844036903F0020378E728
:1010B000466803EB43056C00C3F3400304EB830471
:1010C000A240324001EB4101CB001844036903F018
:1010D000040366E7466803EB43056C00C3F3400373
:1010E00004EB8304A240324001EB4101CB001844E1
:1010F000036903F0080354E7466803EB43056C00FB
:10110000C3F3400304EB83039A40324001EB4101F7
:10111000CB001844036903F0100342E7002002E00B
:10112000002000E0002070BC70470120FBE730B4D5
:1011300003290DD8846801EB41056B00C1F3400120
:1011400003EB810102FA01F12143816030BC704759
:101150000439C9B2C46801EB41056B00C1F3400119
:1011600003EB810102FA01F12143C160EEE7802A1D
:1011700007D001EB4101CB00034419690A431A610E
:10118000704710B401EB4101CC000444636A1A4378
:1011900062625DF8044B704708B5344B984252D0F8
:1011A00013D9334B984257D01CD9324B984226D092
:1011B00003F58063984214D140F60510FFF7CCFC8C
:1011C00040F60510FFF7D6FC0BE0A3F5006398424C
:1011D00027D003F5806398422CD0A3F50063984292
:1011E00016D008BDA3F580639842FAD140F61E00E0
:1011F000FFF7B2FC40F61E00FFF7BCFCF1E740F63B
:101200000410FFF7A9FC40F60410FFF7B3FCE8E771
:1012100040F61100FFF7A0FC40F61100FFF7AAFC12
:10122000DFE740F61200FFF797FC40F61200FFF7E9
:10123000A1FCD6E740F61300FFF78EFC40F6130042
:10124000FFF798FCCDE740F61400FFF785FC40F669
:101250001400FFF78FFCC4E740F61F00FFF77CFC8B
:1012600040F61F00FFF786FCBBE700BF00500040C0
:10127000007C00400010014038B504460D462E4B5E
:10128000984249D00ED92D4B984249D028D92C4BA1
:10129000984231D003F5806398422BD10320FFF7A9
:1012A00079FC0CE0A3F5006398422DD003F5806330
:1012B00098422DD0A3F50063984221D00020E36826
:1012C00013F4004F30D06B0803EB4000B0FBF5F097
:1012D0004FF6F0730340C0F342001843A06038BDDE
:1012E000A3F58063984203D10220FFF753FCE6E7A1
:1012F0000020E4E70020E2E70320FFF74BFCDEE7F5
:101300000220FFF747FCDAE70220FFF743FCD6E7AD
:101310000220FFF73FFCD2E70220FFF73BFCCEE7BD
:101320000220FFF737FCCAE700EB5500B0FBF5F0F1
:1013300080B2A060D3E700BF00500040007C0040B6
:1013400000100140C36823F4C063C360C36819433D
:10135000C1607047C36823F48053C360C3681943F6
:10136000C1607047036923F4405303610369194363
:1013700001617047C36843F40053C3607047C3689A
:1013800023F008031943C1607047C36823F00403C6
:101390001943C1607047C1F3080141607047436958
:1013A00023F48073194341617047436923F4007348
:1013B000194341617047436923F040031943416178
:1013C0007047436923F080031943416170478B09DB
:1013D0001B5801F01F0123FA01F111F0010F01D098
:1013E000012070470020704740F0BF6040F400309B
:1013F000014BD860704700BF00ED00E070B50546B6
:101400000E461446274BDB6803F4E063B3F5E06F48
:1014100025D0244BDB6803F4E063B3F5C06F38D00C
:10142000204BDB6803F4E063B3F5A06F34D01D4BB1
:10143000DB6803F4E063B3F5806F30D0194BDB68F1
:1014400003F4E063B3F5407F02D10023042208E0F7
:101450004FF4A060FFF7C8FF02231A4601E00423FF
:101460000022C2F104029640C3F104030F2222FAC3
:1014700003F31C4034432401E4B20B4A531983F8AC
:10148000004305F01F016D0901238B4042F8253010
:1014900070BD03230122E4E702231A46E1E701239A
:1014A0000322DEE700ED00E000E100E02F4A1368D0
:1014B00043F480331360002301332C4A126812F482
:1014C000003F03D14FF6FF729342F5D1274B1B68C3
:1014D00013F4003F04D1254B1B6813F4003FFAD0EE
:1014E000234A136843F080531360224A136843F47D
:1014F00040431360204B1A681A601A6842F4004295
:101500001A601A6842F4A0521A60043B1B4A1A601F
:10151000164A136843F080731360144B1B6813F072
:10152000007FFAD0134A136843F480331360144BDE
:101530001B6813F4803FFAD00E4A136843F400335B
:1015400013600F4B1B6813F4003FFAD00A4B1A6864
:1015500022F003021A601A6842F002021A60064B77
:101560001B6813F0080FFAD0704700BF0038024024
:1015700040380240007000400838024019644009B9
:101580000470004008B5FFF791FF08BD00B583B0B7
:10159000244AD2F8883043F47003C2F88830224AD3
:1015A000136843F0010313601F4B1B6813F0020F15
:1015B000FAD01E4A136843F080031360002301939E
:1015C00002E0019B01330193019B4F2BF9D9174A8C
:1015D000136843F09003136000230193019B4F2B8A
:1015E00003D8019B01330193F8E7104A136823F0F5
:1015F000030313600C490B6823F0847323F48033D6
:101600000B600B6823F480230B60002313601268C7
:10161000074A0849116008321360FFF7B3FF03B0AF
:101620005DF804FB00ED00E000380240083802409D
:10163000043802401030002400F1080343604FF0EA
:10164000FF328260C36003610023036070470023A0
:101650000361704743684B609A688A605160996083
:101660000861036801330360704730B40D68B5F159
:10167000FF3F02D000F1080202E0026904E01A46CE
:1016800053681C68AC42FAD953684B6099608A6011
:101690005160086103680133036030BC704703691F
:1016A000416882688A60416851605A68824206D007
:1016B000002202611A68013A1A601868704782684D
:1016C0005A60F5E710B5044601F04CFCA26BE36BE1
:1016D0009A4204D0002401F055FC204610BD01249C
:1016E000F9E710B5044601F03DFCA36B23B90124D2
:1016F00001F048FC204610BD0024F9E770B504460F
:101700001646856B026C5AB903681BB1002001357F
:10171000A56370BD806801F069F80023A360F6E757
:101720006EB940680DF082FE226C636813446360FA
:10173000A268934219D3236863603046E7E7C06824
:101740000DF074FE226C5242E3681344E36021689A
:101750008B4202D2A3681A44E260022E01D000201C
:10176000D5E725B1013D0020D1E73046CFE7002085
:10177000CDE7026C72B110B5C3681344C3608468CE
:10178000A34201D30368C3600C46C16820460DF034
:101790004DFE10BD704738B5054601F0E3FB95F8E6
:1017A000454064B203E000F047FF013C64B2002C06
:1017B00008DD6B6A33B105F1240000F0B5FE0028A6
:1017C000F3D0F0E7FF2385F8453001F0DBFB01F0B3
:1017D000C9FB95F8444064B203E000F02DFF013CE2
:1017E00064B2002C08DD2B6933B105F1100000F064
:1017F0009BFE0028F3D0F0E7FF2385F8443001F08A
:10180000C1FB38BD38B504460D4601F0ABFB21687D
:10181000E26B236C03FB0210A0600020A0636160F8
:10182000013A02FB0313E360FF2384F8443084F899
:101830004530A5B923691BB901F0A4FB012038BDCF
:1018400004F1100000F070FE0028F5D0084B4FF0B6
:1018500080521A60BFF34F8FBFF36F8FECE704F134
:101860001000FFF7E9FE04F12400FFF7E5FEE3E7CF
:1018700004ED00E038B51D46049C0B4649B92460D0
:10188000E063236401212046FFF7BCFF84F84C503D
:1018900038BD2260F4E710B584B050240394039C53
:1018A0001C463BB1012384F8463000949DF8183063
:1018B000FFF7E0FF204604B010BD0000F0B585B092
:1018C00004460F4601921E46002539E0324639464D
:1018D0002046FFF713FF636A6BB938B13C4B4FF0FA
:1018E00080521A60BFF34F8FBFF36F8F01F04AFB36
:1018F000012005B0F0BD04F1240000F015FE002821
:10190000F4D0334B4FF080521A60BFF34F8FBFF3C8
:101910006F8FEBE701F036FB0020EAE702A800F04A
:1019200051FE012519E0002384F8443021E0002312
:1019300084F8453023E02046FFF72DFF00F0BEFC81
:1019400001F010FBA26BE36B9A42BFD3022EBDD015
:10195000019B002BDED0002DE0D001F013FB00F046
:101960001FFC01F0FFFA94F844305BB2B3F1FF3F83
:10197000D9D094F845305BB2B3F1FF3FD7D001F036
:1019800001FB01A902A800F029FEC8B92046FFF713
:1019900099FE0028CFD0019904F1100000F0A4FDB9
:1019A0002046FFF7F8FE00F089FC0028C8D1084B5C
:1019B0004FF080521A60BFF34F8FBFF36F8FBFE7B6
:1019C0002046FFF7E8FE00F079FC002091E700BF19
:1019D00004ED00E02DE9F8430446894690461E4692
:1019E00001F096FBEFF311874FF0500383F311885A
:1019F000BFF36F8FBFF34F8FA26BE36B9A4206D397
:101A0000022E04D0002087F31188BDE8F88394F8F3
:101A100045506DB2324649462046FFF76FFEB5F19C
:101A2000FF3F05D001356DB284F845500120EAE74B
:101A3000636A0BB90120E6E704F1240000F074FDAD
:101A400030B1B8F1000F05D00120C8F80000DAE786
:101A50000120D8E70120D6E7F0B585B004460F464F
:101A6000019200263CE039462046FFF782FE013D08
:101A7000A563236923B901F085FA012005B0F0BD03
:101A800004F1100000F050FD0028F4D0344B4FF06A
:101A900080521A60BFF34F8FBFF36F8FEBE701F0F7
:101AA00071FA0020EAE702A800F08CFD012621E08F
:101AB000002384F8443029E0002384F845302BE0EB
:101AC0002046FFF768FE00F0F9FB09E02046FFF72B
:101AD00062FE00F0F3FB2046FFF703FE00283DD135
:101AE00001F040FAA56B002DBDD1019B002BD6D093
:101AF000002ED8D001F046FA00F052FB01F032FA85
:101B000094F844305BB2B3F1FF3FD1D094F8453044
:101B10005BB2B3F1FF3FCFD001F034FA01A902A8C4
:101B200000F05CFD0028D1D12046FFF7DAFD002847
:101B3000C6D0019904F1240000F0D6FC2046FFF73E
:101B40002AFE00F0BBFB0028CAD1054B4FF08052A3
:101B50001A60BFF34F8FBFF36F8FC1E700208DE78F
:101B600004ED00E00023072B0CD8074A52F833207D
:101B70000AB10133F7E7044A42F8331002EBC3031A
:101B800058607047704700BFC0DB002070B5044646
:101B90000D46164601F0E6F994F844305BB2B3F115
:101BA000FF3F0DD094F845305BB2B3F1FF3F0BD04F
:101BB00001F0E8F9A36B5BB12046FFF7ECFD70BDC7
:101BC000002384F84430EDE7002384F84530EFE744
:101BD0003246294604F1240000F094FCECE7F0B40E
:101BE00003684BB343685B68436000F10807BB427E
:101BF00004D04368D3F80CC0002609E05B6843605A
:101C0000F7E75B68436008E02E46B6B9AC4514D0F0
:101C100043685B6843609F42F3D04368DD680023FC
:101C20000F2BF2D8EA1892F83420CC5C9442ECD115
:101C3000002AE9D00133F3E700263046F0BC7047B4
:101C400000230278A52A02D101300133F9E7C3F35A
:101C50008F007047084B1B681B6823B9074B4FF078
:101C6000FF321A607047044B1B68DB68DB685A68F8
:101C7000024B1A60704700BF54010020FC05002091
:101C80002DE9F04781460D4617469A46089EDDF835
:101C900024800A9C9200A521206B0DF0EFFB236BA2
:101CA00007F18042013A03EB820727F0070785B36B
:101CB00000230F2B06D8EA5CE11881F834200AB122
:101CC0000133F6E7002384F84330372E00D9372656
:101CD000E662E66400252565201DFFF7B8FC04F1E7
:101CE0001800FFF7B4FC2461C6F13806A6616462EF
:101CF0006565A56584F85C5052464946384601F052
:101D000007F92060B8F1000F01D0C8F80040BDE825
:101D1000F087002384F83430D7E7000038B500247A
:101D2000372C08D804EB840293000E481844FFF7C0
:101D300083FC0134F4E70C4D2846FFF77DFC0B4C87
:101D40002046FFF779FC0A48FFF776FC0948FFF7C1
:101D500073FC0948FFF770FC084B1D60084B1C60C2
:101D600038BD00BF5C010020D4050020E80500203C
:101D700004060020300600201C060020540100202C
:101D80005801002010B5044601F0ECF8214A136810
:101D900001331360204B1B685BB1204B1B686BB990
:101DA0001D4B1B68DA6AE36A9A4207D81A4B1C601B
:101DB00004E0194B1C601368012B27D0184A1368E4
:101DC000013313606364E36A164A1268934201D9CF
:101DD000144A136003EB83039A00211D1248104438
:101DE000FFF738FC01F0CEF80C4B1B686BB10A4BC7
:101DF0001B68DA6AE36A9A4207D20C4B4FF08052B2
:101E00001A60BFF34F8FBFF36F8F10BDFFF786FFD0
:101E1000D4E700BFBC0500205001002018060020B8
:101E2000CC050020D00500205C01002004ED00E07E
:101E300010B5044690F85D3013B1012B07D010BDEA
:101E4000006B01F0B1FA204601F0AEFAF7E701F0BD
:101E5000ABFAF4E70F4B1B68D3B110B501F082F871
:101E60000D4BDB68DC68201DFFF719FC0B4A13687B
:101E7000013B1360074A1368013B136001F082F8CD
:101E80002046FFF7D5FF034B1B68002BE6D110BDA2
:101E9000704700BFC005002030060020BC050020B0
:101EA00008B5FFF7D7FF064B1B68012BF9D9054B87
:101EB0004FF080521A60BFF34F8FBFF36F8FF0E780
:101EC0005C01002004ED00E070B504460E46174B9F
:101ED0001D68174B18680430FFF7E1FBB4F1FF3FB2
:101EE0000DD02C44124B1B685C60A54210D9114BDD
:101EF00018680F4B19680431FFF7B7FB70BD002E4F
:101F0000EFD00B4B196804310B48FFF7A3FBF5E743
:101F10000A4B1868064B19680431FFF7A6FB084BFB
:101F20001B68A342EAD9064B1C60E7E74406002081
:101F300050010020580100201C0600205401002000
:101F4000FC05002010B504460DF0B5FC2046FEF758
:101F500059F90E2803D8202323540130F9E7002330
:101F60002354204410BD70B586B00B9D0C9C642694
:101F70000496049E8CB185B12563022584F85D50DA
:101F800000250395029405AD01950A9D0095FFF784
:101F900077FE2046FFF7F6FE01E000230593059843
:101FA00006B070BD2DE9F04385B00746884615465A
:101FB0009946900001F098F9F8B10646642001F0C6
:101FC00093F90446A8B10663E4B1002384F85D30B8
:101FD000039302940D9B01930C9B00934B462A465E
:101FE00041463846FFF74CFE2046FFF7CBFE012066
:101FF00005E0304601F0D8F9E6E74FF0FF3005B0D4
:10200000BDE8F0834FF0FF30F9E7000038B5044633
:1020100000F0A8FF24B3251D2846FFF740FBA36A64
:102020001BB104F11800FFF73AFB184A136801339B
:102030001360174B1B68A34215D0164A1368013B67
:1020400013602046FFF7F4FEFFF704FE00F09AFF4E
:10205000114B1B681BB10E4B1B68A3420CD038BD43
:102060000B4B1C68D7E729460C48FFF7F3FA0C4ADC
:10207000136801331360E9E70A4B4FF080521A608E
:10208000BFF34F8FBFF36F8FE9E700BFCC05002090
:1020900050010020BC05002018060020300600205A
:1020A000C005002004ED00E0F8B5194B1B68834221
:1020B00025D0044600F056FF6569164B1E68164B86
:1020C0001F6800F05FFFB5421BD0BD421BD0134B11
:1020D0009D4205D0124B9D4217D075B101200FE0F3
:1020E000A36A0BB102200BE094F85C30DBB2012B49
:1020F00001D0032004E0022002E0042000E00020E0
:10210000F8BD0220FCE70220FAE70420F8E700BF50
:102110005001002054010020580100201C0600201E
:102120003006002010B588B000240594069407AA54
:1021300006A905A800F0A6FE059B0293069B019345
:1021400000942346079A11491148FFF70CFF28B164
:1021500000F042FC012803D008B010BD0020F9E7D0
:102160004FF0500383F31188BFF36F8FBFF34F8F8E
:10217000084B4FF0FF321A60074B01221A60074BE1
:1021800000221A6000F070FFE6E700BFB80C0108FB
:10219000A11E0008FC0500201806002044060020AF
:1021A000024A136801331360704700BFC80500205E
:1021B000014B1868704700BF44060020F8B5344B47
:1021C0001B68002B58D1334B1E6801361E6086B148
:1021D000314B1B68B34245D90027304B1B68DB6A83
:1021E00003EB83039A002E4B9B58012B49D90127FF
:1021F00047E02C4A11682C4B1868106019602B4A74
:10220000136801331360FFF725FDE1E70127254B34
:102210001B681B6843B3234B1B68DB68DC6863687F
:102220009E4226D3251D2846FFF739FAA36A1BB123
:1022300004F11800FFF733FAE36A1D4A126893426B
:1022400001D91B4A136003EB83039A002946144803
:102250001044FFF7FFF9E26A104B1B68DB6A9A42F1
:10226000D4D2D4E70027D2E70B4B4FF0FF321A60ED
:10227000B3E7094A1360B0E70E4A136801331360ED
:1022800000270D4B1B6803B101273846F8BD00BF7E
:10229000C805002044060020FC0500205001002055
:1022A0005C0100205401002058010020000600209D
:1022B000D0050020C40500204806002038B500F0F5
:1022C00051FE2D4B1A68013A1A601B68002B4DD144
:1022D0002A4B1B680BB9002449E00024284B1B68DB
:1022E0001BB3274BDB68DC6804F11800FFF7D7F954
:1022F000251D2846FFF7D3F9E36A224A1268934264
:1023000001D9204A136003EB83039A0029461E4833
:102310001044FFF79FF9E26A1C4B1B68DB6A9A4284
:10232000DCD31B4B01221A60D8E70CB1FFF792FCFB
:10233000184B1C6874B9164B1C68C4B1164B4FF08F
:1023400080521A60BFF34F8FBFF36F8F01240EE0EE
:10235000013C07D0FFF732FF0028F9D00C4B0122D7
:102360001A60F5E70B4B00221A60E4E7002400F046
:1023700009FE204638BD00BFC8050020BC0500206E
:1023800004060020D00500205C0100205001002040
:1023900048060020C405002004ED00E010B540B957
:1023A0000A4B4FF080521A60BFF34F8FBFF36F8F0D
:1023B00010BD0446FFF7F4FE00212046FFF784FD20
:1023C000FFF77CFF0028F3D1EAE700BF04ED00E04F
:1023D00070B50646FFF7E4FE3824013C04EB8402A6
:1023E0009300314614481844FFF7F9FB054608B935
:1023F000002CF2D135B165B195B1BDB1FFF75EFFEB
:10240000284670BD0D4B18683146FFF7E8FB0546BE
:10241000F1E70B4B18683146FFF7E1FB0546EBE7A8
:1024200031460848FFF7DBFB0546E6E7314606483C
:10243000FFF7D5FB0546E1E75C01002054010020D1
:10244000580100201C06002030060020204B1B688D
:102450001BB1204B01221A60704710B41D4B0022A3
:102460001A601D4B1B681D4A12681A661C4B1B68BC
:1024700003EB83018A001B498A580AB9013BF7E73D
:1024800008469A00D418A10001444C6864684C6066
:102490001A44910008310844844211D003EB8302AE
:1024A0009100104A0A445268D1680B4A11600C49E5
:1024B0000B6013681A6E094B1A605DF8044B704785
:1024C000606803EB83029100064A0A445060E5E726
:1024D000C805002048060020500100204C010020C3
:1024E000D00500205C01002010B50C46044B196893
:1024F0001831FFF7BAF801212046FFF7E5FC10BDBF
:102500005001002038B50D461446064B19681831A5
:10251000FFF7A0F80CB14FF0FF3521462846FFF732
:10252000D3FC38BD5001002038B5C368DC6804F125
:1025300018052846FFF7B3F8134B1B68E3B9251DB0
:102540002846FFF7ACF8E36A104A1268934201D9B3
:102550000E4A136003EB83039A0029460C4810448B
:10256000FFF778F8E26A0B4B1B68DB6A9A4208D9DE
:102570000120094B186005E029460848FFF76AF872
:10258000F0E7002038BD00BFC8050020D0050020BE
:102590005C010020500100204806002004060020B5
:1025A00010B5044600F0DEFC044B1B682360044BAE
:1025B0001B68636000F0E6FC10BD00BF0006002051
:1025C00044060020034B1B680360034B1B684360F9
:1025D000704700BF0006002044060020F8B50446FE
:1025E0000D4600F0BFFC124B19686368C81A2A68D0
:1025F000B2F1FF3F14D027680E4E3668B74201D0C3
:102600008B4212D9824203D800232B60012408E0B8
:102610005B1A13442B602046FFF7D4FF002400E030
:10262000002400F0AFFC2046F8BD0124F9E700BF0C
:102630004406002000060020014B01221A6070476A
:102640004806002070B50C4616460546D0B12560F8
:1026500005F134026260EA6A22612A6BE2616A6C07
:10266000A260EA6C62610022A261052B19D0124AB5
:102670001268AA4209D02373032B09D0B6B90023EC
:10268000238470BD0C4A1568E1E700232373F5E746
:10269000FFF786FDAB6A0BB102232373FFF70EFE33
:1026A000ECE72846FFF700FD2073E7E7286BFFF70C
:1026B000C7FA2084E5E700BF500100202DE9F0476C
:1026C0000C683CB34B685B684B6001F108094B45F3
:1026D00007D090460D4607464B68D3F80CA000245F
:1026E00012E05B684B60F4E75B686B606B68DE6808
:1026F00004EBC40399004346012239443046FFF7F6
:10270000A1FF0134B24505D06B685B686B609945E9
:10271000ECD1E9E72046BDE8F0870000F8B50746B0
:102720000C461646FFF73CFD224B1B68A3423BD8E4
:1027300038240025013C05EBC503980004EB840216
:10274000930001221C4919443844FFF7B7FF0544A0
:10275000002CEFD105EBC5039800184B1968022235
:102760003844FFF7ABFF054405EBC5039800144B55
:10277000196802223844FFF7A1FF054405EBC503A1
:10278000980004220F493844FFF798FF2C1804EBF7
:10279000C403980003220C493844FFF78FFF044418
:1027A0001EB10023336000E00024FFF787FD2046C0
:1027B000F8BD00BFBC0500205C01002054010020D2
:1027C00058010020300600201C060020054B1B6825
:1027D00033B1054B1B680BB10020704702207047D6
:1027E0000120704718060020C805002020B338B526
:1027F0000446026D013A0265C06AE16C88421DD050
:102800000AB1002038BD251D2846FEF748FFE36CBD
:10281000E362C3F13802A261094A1268934201D906
:10282000074A136003EB83039A00294605481044C6
:10283000FEF710FF0120E5E7002070470020E1E7E8
:10284000D00500205C0100202DE9F04383B005464F
:1028500000230370284B1C681B6803EBC30398001C
:1028600000F042FD002844D0074600222146FFF731
:1028700055FF8046002623E04FF058090DE04FF049
:1028800042090AE04FF0530907E04FF0440904E021
:102890004FF0000901E04FF0520961682846FFF748
:1028A00051FB05462369228CA168019100924A469A
:1028B00012490CF0D3FF2846FDF7A4FC054401366D
:1028C000464513D206EBC6039C003C44237B042BF5
:1028D000DED801A252F823F07928000897280008D2
:1028E0007F280008852800088B280008384600F05B
:1028F0005BFD03B0BDE8F083BC050020A80C010817
:10290000064B1A6813682BB90123036023B9D368F7
:10291000186870470023F8E7002070474C06002035
:1029200008B54160006191420CD8D21A83699A427D
:1029300001D3012008BD011D094B1868FEF795FE63
:102940000020F7E79A4201D2994206D2011D054BB9
:102950001868FEF78AFE0020ECE70120EAE700BFD6
:10296000500600204C06002030B583B000F0FAFA83
:10297000114B1B681BB100F005FB03B030BD0F4DC0
:102980002846FEF759FE0E4C2046FEF755FE0D4B2D
:102990001D600D4B1C60002300930C4B0C4A102152
:1029A0000A20FEF778FF044B18600028E3D009499D
:1029B000FFF7D8F8DFE700BF70070020F40600201B
:1029C000080700204C0600205006002020070020A9
:1029D00054060020C00C010810B588B0FFF7C4FFF2
:1029E000104B1B68D3B100240594069407AA06A9CE
:1029F00005A800F053FA059B0293069B019302235E
:102A000000932346079A08490848FFF7ACFA084B99
:102A1000186008B1012002E0204600E0002008B064
:102A200010BD00BF70070020C80C0108D52C00089D
:102A30007407002030B585B0134C25680DB31C46D3
:102A4000009101920290052913DCFFF7BFFE0228D6
:102A500007D000231A4669460B480068FEF72EFF90
:102A60000DE00023089A694607480068FEF726FF34
:102A700005E00023224669462846FEF7ABFF05B075
:102A800030BD0020FBE700BF7007002070B582B0AA
:102A9000164B1B681A6812B3DB681E68DC68251DBC
:102AA0002846FEF7FCFD236A2046984794F8283014
:102AB00013F0040FECD0A36933449E4207D2636045
:102AC00024612946094B1868FEF7CFFDE0E7002195
:102AD00000910B4632462046FFF7ACFFD8E7044A88
:102AE000106802490860136002B070BD4C060020F7
:102AF0005006002038B50546FFF75AFB0446074B41
:102B00001B68834205D800232B60044B1C602046C1
:102B100038BDFFF7BBFF01232B60F6E71C07002041
:102B200070B582B005460E46124B1B68DB68DC6848
:102B3000201DFEF7B4FD94F8283013F0040F08D1DF
:102B400023F0010384F82830236A2046984702B016
:102B500070BDA1692B46324629442046FFF7E0FEAE
:102B60000028F1D0002100910B462A462046FFF7AD
:102B700061FFE9E74C06002070B582B006460C46BE
:102B8000FFF70EFB01A8FFF7B5FF019B23BB05462E
:102B90000CB9B04217D224B1114A12681268CAB9EE
:102BA00001242246711B0F4B1868FEF7EFFFFFF759
:102BB00085FB98B90C4B4FF080521A60BFF34F8FD2
:102BC000BFF36F8F0AE0FFF779FB29463046FFF726
:102BD000A7FF03E01C46E4E7FFF770FB02B070BDFF
:102BE000500600207007002004ED00E030B589B0E9
:102BF00006E007990698059B9847049B002B0BDA83
:102C0000002204A9324B1868FEF726FF00285CD08A
:102C1000049B002BF1DAECE7069C636913B1201DDD
:102C2000FEF73DFD03A8FFF765FF049B092BE7D8DE
:102C3000DFE803F0050505272E3D0505272E94F84E
:102C4000283043F0010384F828300599A5690B4624
:102C5000024629442046FFF763FE0028D0D0236AAD
:102C60002046984794F8283013F0040FC8D0A26982
:102C7000002100910B46059802442046FFF7DAFE3A
:102C8000BEE794F8283023F0010384F82830B7E732
:102C900094F8283043F0010384F828300599A161A5
:102CA0000346024601442046FFF73AFEA8E794F89F
:102CB000283013F0020F04D023F0010384F82830E9
:102CC0009EE7204600F070FB9AE709B030BD00BFD8
:102CD0007007002000B583B001A8FFF711FE01992D
:102CE000FFF74AFFFFF782FFF6E70000EFF30583E7
:102CF0007BB9EFF3108313B9EFF311831BB1094BC9
:102D00001B68022B08D0074B186840B901221A60D3
:102D100070476FF0050070476FF0050070474FF087
:102D2000FF307047DC09002008B5EFF30583A3B935
:102D3000EFF3108313B9EFF311831BB10B4B1B6837
:102D4000022B0DD0094B1B68012B0CD1074B022223
:102D50001A60FFF7E7F9002008BD6FF00500FBE7F8
:102D60006FF00500F8E74FF0FF30F5E7DC090020D1
:102D7000F0B587B000240594EFF30584002C38D11A
:102D8000EFF3108313B9EFF311831BB12D4B1B68C5
:102D9000022B2ED068B322B31668946904B91824A4
:102DA000631E372B49D8536813F0010F47D155697B
:102DB0006DB14FEA950C93682BB1D768632F02D998
:102DC000176907B1C5B92BB14FF0FF350EE04FF0D1
:102DD000800CF0E7D3688BB9136993B14FF0FF35DE
:102DE00004E01646002518244FF0800C012D0AD06F
:102DF000ADB1059807B0F0BD0125F7E74FF0FF35FD
:102E0000F4E70025F2E713699268029201930094B7
:102E10000B4662463146FFF7A6F80590E9E705AA9A
:102E2000019200940B461FFA8CF23146FFF7BAF874
:102E30000128DED000230593DBE70020DAE700203D
:102E4000D8E700BFDC09002008B5EFF3058383B99C
:102E5000EFF3108313B9EFF311831BB1084B1B6819
:102E6000022B09D008B9002008BDFFF797FA00200F
:102E7000FAE76FF00500F7E76FF00500F4E700BF31
:102E8000DC090020034B0360034B0B6080231360BD
:102E9000704700BF7809002078070020034B0360CB
:102EA000034B0B604FF4807313607047E00D0020FC
:102EB000E009002082B0002301934FF0500383F318
:102EC0001188BFF36F8FBFF34F8F019B002BFCD096
:102ED00002B0704708480068006880F308884FF027
:102EE000000080F3148862B661B6BFF34F8FBFF362
:102EF0006F8F00DF00BF000008ED00E0DFF80C007E
:102F0000016841F4700101607047000088ED00E045
:102F10004FF0807340F8043C21F0010140F8081C98
:102F2000054B40F80C3C40F8202C6FF0020340F8B1
:102F3000243C4438704700BFB52E00080000000054
:102F4000074B19680868B0E8F04F80F30988BFF3B1
:102F50006F8F4FF0000080F311887047AFF300804F
:102F6000500100204FF0500383F31188BFF36F8F9F
:102F7000BFF34F8F024A136801331360704700BFDD
:102F800004000020034A1368013B13600BB983F36C
:102F900011887047040000200000000000000000BD
:102FA000EFF30980BFF36F8F154B1A681EF0100FF7
:102FB00008BF20ED108A20E9F04F10602DE90900CC
:102FC0004FF0500080F31188BFF34F8FBFF36F8F26
:102FD000FFF73CFA4FF0000080F3118809BC196834
:102FE0000868B0E8F04F1EF0100F08BFB0EC108A70
:102FF00080F30988BFF36F8F704700BFAFF3008085
:103000005001002008B54FF0500383F31188BFF33F
:103010006F8FBFF34F8FFFF7D1F818B1034B4FF00D
:1030200080521A60002383F3118808BD04ED00E08C
:10303000084A0023136008490B60084B1B680849C5
:10304000A1FB03139B09013B06490B600723136097
:10305000704700BF10E000E018E000E00000002032
:10306000D34D621014E000E010B582B0234B1A7803
:10307000D2B20192FF221A701B78DBB28DF80330B6
:103080009DF803301E4B07221A609DF8033013F0A1
:10309000800F0AD01A4A1368013B13609DF8033071
:1030A0005B00DBB28DF80330EFE7154A13681B02B3
:1030B00003F4E0631360019BDBB2104A1370114B01
:1030C0001A6842F470021A601A6842F070421A607C
:1030D000FFF7AEFF00240C4B1C60FFF70FFF0B4AFD
:1030E000136843F040431360FFF7F4FEFFF7AEF9B7
:1030F000FFF7E0FE204602B010BD00BF00E400E094
:10310000440E002020ED00E00400002034EF00E039
:10311000EFF305830F2B01D9014A9B5C704700BF79
:10312000F0E300E0000000002DE9D04F8046894622
:10313000144615A3D3E90023FDF7C2F882468B4657
:10314000C4E900AB10A3D3E9002340464946FDF78C
:10315000B7F8A260002A01DBBDE8D08F084981FBE7
:103160000231D317C3EB21730133BAEB03066BEBC8
:10317000E377C4E90067034901FB0322A260EBE7A0
:10318000A12FB84400CA9A3B00CA9A3B0000000035
:103190002DE9F04882B00F46002600960196684659
:1031A000FFF7FEF9009D019B16EB030B45F1000CA8
:1031B0004FEA4C134FEA4B1043EADB61B0EB0B00D4
:1031C00061EB0C014B0243EAD053420212EB0B00BD
:1031D0004CEB03018A0142EA90628301181A62EB08
:1031E00001013A4610EB0B004CEB0101FFF79CFF8D
:1031F000304602B0BDE8F08810B50A49A1FB0023B3
:103200009B094FF47A7202FB1304002C18BF0133A0
:1032100002FB03F3A1FB03308009FFF7BFF8002096
:1032200010BD00BFD34D6210134A12F0070F08D033
:10323000D11D21F00701C1F54343503313440A4621
:1032400001E04CF250330D4802600021416013440C
:10325000083B23F007030A48036059601960991A74
:1032600051601360074B1960074B1960074B4FF013
:1032700000421A60704700BF4C0E0020A8D1002009
:10328000480E0020A4D10020A0D100209CD1002015
:1032900010B4134A00E01A4613688342FBD3516806
:1032A000541884420AD041684418A3420BD00360EA
:1032B000904200D010605DF8044B704740680144B4
:1032C00051601046EFE7074C2468A34206D05B68C4
:1032D0001944416013681B680360E9E70460E7E78D
:1032E000A8D10020480E002070B50546FEF758FF13
:1032F000284B1B68A3B1284B1B681D4242D135B136
:10330000083515F0070F02D025F007050835002D08
:103310003AD0224B1B68AB4238D3214A146804E0F0
:10332000FFF782FFE7E722461C466368AB4202D202
:103330002368002BF7D1174B1B68A34228D01668CF
:1033400008362368136063685B1B102B14D862680F
:1033500012490B689B1A0B60124909688B4201D213
:1033600010490B600C4B1B68134363600023236000
:10337000FEF7A4FF304670BD601943606560FFF73B
:1033800087FFE4E70026F3E70026F1E70026EFE7F2
:103390000026EDE7480E00209CD10020A0D100209F
:1033A000A8D10020A4D10020F8B138B50446A0F17E
:1033B000080550F8042C0D4909680A4202D050F85B
:1033C000080C00B138BD22EA010244F8042CFEF7D3
:1033D000E7FE54F8041C064A13680B4413602846A1
:1033E000FFF756FFFEF76AFFECE770479CD100201D
:1033F000A0D1002050F8043C024A106823EA0000E3
:10340000704700BF9CD1002070B505460C46FEF702
:10341000C7FE2046FFF768FF0646B8B1B5B155F8BC
:10342000043C0C4A126823EA0203083B9C4200D386
:103430001C4632462B46611E2CB113F8010B02F8D4
:10344000010B0C46F7E72846FFF7AEFFFEF736FF05
:10345000304670BD9CD1002038B504460D46FEF7BD
:103460009FFE04FB05F42046FFF73EFF054603469A
:10347000621E24B1002103F8011B1446F8E7FEF791
:103480001DFF284638BD000008B5054B1A680244E8
:103490001A60044A136803441360FFF725FF08BD50
:1034A000B0D10020B4D1002058B110B50446FFF7C8
:1034B000A1FF044A1368181A10602046FFF774FF32
:1034C00010BD7047B4D1002038B50C460C4A1368C3
:1034D0000B4413600B4A13680B44136058B1054644
:1034E000FFF788FF074A1368181A1060214628461C
:1034F000FFF78AFF38BD0846FFF7F6FEFAE700BF80
:10350000B0D10020B4D1002010B501FB00F4054B70
:103510001A6822441A60044A136823441360FFF7B0
:103520009BFF10BDB0D10020B4D10020F0B58BB00E
:1035300040270797002503950495059508951D4B91
:103540000193012602964FF48033099306961A4C94
:1035500001AA07212046FDF736FC04220721204658
:10356000FDF7A4FC0795154B03934FF400630893F4
:103570004FF44033099301AA02212046FDF723FCB2
:10358000042202212046FDF791FC2A4605213A201B
:10359000FDF734FF102202212046FDF7E8FD02214D
:1035A0002046FDF771FC39460548FDF704FF30461B
:1035B0000BB0F0BD0410014000640240B8D10020FF
:1035C0000010014010B5054C07212046FDF7C9FB4E
:1035D00002212046FDF7C5FB012010BD006402401A
:1035E00038B51546144C0B46002207212046FDF73E
:1035F00032FC2A4607212046FDF73AFC07212046E7
:10360000FDF742FC80210D48FDF7DBFE202207215B
:103610000948FDF756FC18B90120FFF715FCF5E73E
:10362000054C202207212046FDF772FC0721204689
:10363000FDF733FC284638BD00640240001001400D
:1036400038B50D46144672B602210E48FDF716FC39
:10365000C0F500600C4B186062B600200B4B1B6875
:10366000094A126893420BD0A04209D2084AD25CA0
:103670002A540133C3F30A03044A13600130EDE70F
:1036800038BD00BF00640240BCD90020B8D900207A
:10369000B8D1002030B310B584B00CF05FF802460A
:1036A000114B1860114C124B1B681249A0680CF0AA
:1036B000D5F8A068FCF7A6FDE06069460020FFF79A
:1036C00067FD009B2360029B636000220A4B1A6027
:1036D00021460A4800F078FAA16809480BF08CFFEF
:1036E00004B010BD704700BF40DC00200CDC00209F
:1036F00020DC0020540D01083CDC002024DC0020EC
:103700005C0D010838B5044685682946074B986862
:10371000FCF76EFD00B938BD294605480BF06CFF7B
:1037200000222146034800F04FFAF4E70CDC0020A9
:103730002C0D010844DC002010B584682146074B9D
:103740009868FCF755FD00B110BD054B1A680132B1
:103750001A60214603480BF04FFFF5E70CDC002010
:103760003CDC0020700D010800B5E1B05BA800F062
:1037700063FF5BAB002211464DA800F0E7FD002877
:1037800040F083804DAB704A70494BA800F02CFE8E
:103790000246002840F0828001F0AAFE6C4B0246EF
:1037A0004BA96C4800F058FE024600287ED101F07B
:1037B0009FFE694B02464BA9684800F07DFE024619
:1037C00000287BD101F094FE614B02464BA964486E
:1037D00000F0A2FE0246002878D101F089FE5E4B7F
:1037E00002464BA95F4800F097FE0246002875D1BB
:1037F0005D4B009352A3D3E900234DA94AA800F0E2
:10380000BBFE0246002871D15BAB03224EA92AA859
:1038100000F002FB0246002870D14AA92AA800F055
:10382000A5FB0246002871D1002300934F4B504A5C
:103830004B492AA800F060FB024600286ED1002305
:1038400000934C4B4C4A47492AA800F055FB0246CE
:1038500000286BD1494A1DAB936032231361444A5F
:1038600010A991601361444A03A9916013610BF0A0
:1038700075FF434B1860434A00232AA800F030FD2F
:103880004FF47A70FFF7B8FCF5E7024657213E483F
:103890000BF0B2FE0020FEF7B9FB73E75B213A485C
:1038A0000BF0AAFE0020FEF7B1FB75E75F2136485A
:1038B0000BF0A2FE0020FEF7A9FB78E76321324857
:1038C0000BF09AFE0020FEF7A1FB7BE767212E4854
:1038D0000BF092FE0020FEF799FB7EE76B212A4851
:1038E0000BF08AFE0020FEF791FB81E7702126484D
:1038F0000BF082FE0020FEF789FB85E77521224848
:103900000BF07AFE0020FEF781FB86E776211E4849
:103910000BF072FE0020FEF779FB85E778211A484C
:103920000BF06AFE0020FEF771FB88E77A2116484B
:103930000BF062FE0020FEF769FB8BE7AFF300801F
:103940000094357700000000F80C0108FC0C010819
:103950000C0D010824DC00201C0D010844DC0020B3
:1039600008DC00205CDC00209536000805370008E4
:1039700048DC00203937000828DC00200CDC00205F
:1039800020DC002080969800D00C0108014B1868BC
:10399000704700BF880D01082DE9F04F8FB0189FC8
:1039A000002F3CD007F15005044628469946904622
:1039B0000E4600F04FFE90B38CB3D4F800A0BAF1DD
:1039C000000F04D0642528460FB0BDE8F08F3046C4
:1039D00006F042FB40B3B8F1000F20D0B9F1000F60
:1039E0001DD0AE46BEE80F000DF1240CACE80F0070
:1039F000DEF80030CCF8003000F07AFE0EAB069016
:103A000013E907008DE8070009AB514606A80CCB67
:103A100000F004FF50B10A2813D00125D3E70B258D
:103A200028460FB0BDE8F08FC825CCE706A805F002
:103A3000A5FF824638B106A800F032FFBAF10A0F9E
:103A4000EBD10A25BFE73046CDF81CA006F00EFBEF
:103A50008246304606F012FB86460FCD0DF11C0B58
:103A6000EC46CDF814B0ACE80F002B68CCF8003071
:103A700072465146484606AB05F02EFE054606A89E
:103A800000F00EFF20B95DB1672D02D0692D72D014
:103A900001250798002896D07B6D396E984792E7EC
:103AA000304606F0F3FA0028F2D00798FCF7AAFB9C
:103AB0003B6D396E01309847DDF81CA081465046B9
:103AC000FCF7A0FB5146421C48460BF0AFFC2A46CF
:103AD000484608A900F0B2FF002849D1089B396E7A
:103AE000002B4AD13B6DC02098472060002846D06B
:103AF000304606F0D3FA07F16403009341463B4693
:103B00004A46256801F08AF82168C5F8BC00D1F85A
:103B1000BC0038B3683101F05DF923680546A8B9E7
:103B200097F8482083F8B0203946682218460BF0F1
:103B30007DFC3268396EC0F8B82007987B6D10B1F3
:103B400098477B6D396E484698473CE783B1D3F878
:103B5000BC303BB1304606F0A1FA2368D3F8BC1064
:103B600001F046F97B6D396E206898470023236089
:103B7000396E0125E1E767258BE76725DDE7396EBB
:103B80000A25DAE7F0B50E4E0E4987B007465022F7
:103B900030460BF04BFC6C46684600F04DFD0FCCF8
:103BA00006F150050FC523682B6000F045FF314634
:103BB0007066682238460BF039FC384607B0F0BD15
:103BC000C0D90020900D0108F8B10368EBB170B5C1
:103BD000D3F8BC40A4B10446D3F8B80016460D464D
:103BE00005F00CFD60B12368D3F8BC0040B155B1BD
:103BF0003246294600F0B4FF003018BF012070BDE6
:103C00004FF4967070BD0B2070BD4FF496707047E6
:103C1000E0B10378082B1BD8DFE803F01010121472
:103C20001416161605008B68426B53F822300033C9
:103C300018BF012380F83930002070470B68F3E784
:103C40000B69F1E78B69EFE70B6AEDE70B20704733
:103C5000002380F839300120704700BF002845D08C
:103C600010B503788EB00446082B49D8DFE803F07E
:103C7000141411272705050511000B6A426B53F830
:103C8000223033B1D0E9010204F1100106F042FB09
:103C900070BB00200EB010BD0B68426B53F8223091
:103CA000002BF6D0002302AAD0E9010106F0B8FCEF
:103CB0000028EFD040F2911398421DD011E08B699B
:103CC000426B53F82230002BE3D0D0E9010204F11B
:103CD000100105F03BFC0028DBD040F2F5139842C0
:103CE000D8D0019000F0E0FC0198D3E70B2070479A
:103CF00040F259239842F4D1002384F83930C9E7BF
:103D00000120C7E70346F0B1F9B190F83800D8B107
:103D100093F83900C0B902460132914214D010B470
:103D200093F87840403354B193F839403CB90132AC
:103D3000914205D093F878404033002CF4D12046CE
:103D40005DF8044B7047704770470846704700BFE6
:103D500070B5037882B00446082B58D8DFE803F02A
:103D60000A121C322A3838380500036B98470020A5
:103D700002B070BD90F83950036B25BB28469847B8
:103D80002846F5E790F83950D0E90B13002D31D0D3
:103D9000806898470020EBE7406806F04DFF40F24E
:103DA000213398422AD00028E2D0019000F07CFC18
:103DB0000198DDE7036B806804F11001984700204B
:103DC00002B070BD036BA0689847002002B070BDC0
:103DD000062B8068A16A266B04F1100510D0072B12
:103DE00012D0B0472946A26A606806F0CDFA0028D2
:103DF000BED0DAE7284698472846B9E70020B7E75B
:103E00000A462946B047EDE7E26AB047EAE70120F3
:103E1000AEE700BF0000000000285ED000295CD0A3
:103E20002DE9F0410546AEB01846984616460C46B8
:103E300000F010FC002848D0002E46D080222C49EB
:103E40000EA80BF0F3FA0EA9802228460BF0EEFA2A
:103E50002C606846AE606C4607F03CF90FCC05F16B
:103E600014070FC70FCC0FC70FCC0FC71EA3D3E982
:103E7000002321683960D8F80040D8F81010C5F840
:103E80001080C5E91823B001A047686038B300244A
:103E900000E0686800EB84103146013400F042FA1B
:103EA000A642F6D105F1480000F030FA6B68114ADD
:103EB0002A670020686763B12B6953B1AB6843B1CF
:103EC00085F878002EB0BDE8F0810B202EB0BDE85B
:103ED000F08118462EB0BDE8F0810B2070470A2013
:103EE000F4E700BFAFF3008000CA9A3B0000000077
:103EF000E00D0108053D00082DE9F8439DF820601C
:103F000050B349B342B33BB3D0E90245A54202D313
:103F10000120BDE8F883D0F804E04FEA851C044690
:103F20000EEB0C00002701354FF0010904F11408D5
:103F30000EF80C70C0E9011203634670C76280F886
:103F400038904046E56007F0D7F840B9A36C0133DC
:103F5000A3640020BDE8F8830B20BDE8F883404649
:103F600007F0D0F80028F1D0D3E700BF00B3F9B1D3
:103F7000F8B5D0E90223934201D30120F8BD45688A
:103F8000044698012A180227516001332F52012656
:103F9000002104F1140582F83860D1622846E360FC
:103FA00007F0AAF830B9E36C0133E3640020F8BDF0
:103FB0000B207047284607F0A5F80028F3D0F8BD7D
:103FC00000283ED0F0B500F114079BB004463846F7
:103FD00007F092F810B100201BB0F0BD384607F092
:103FE00091F800282AD10CA80CAD07F073F80FCD7A
:103FF0003E460FC60FCD0FC60FCDD4F810C00FC66A
:10400000BCE80F002D68356004AD0FC5DCF800304A
:104010002B6023680393E36D0293636D0193236D1B
:1040200000933846E36CA26DA16C07F093FB002867
:10403000D2D00B9000F038FB0B98CDE700F034FBAA
:10404000D1E70B20704700BF2DE9F04700F11408BD
:1040500082B016461F460546FFF7B2FF404607F0FE
:1040600023F98146002840F0CF80AB681BB36B6812
:1040700093F838200446F2B11A780134082A00F285
:10408000BB80DFE802F0AFAFA59B9B8C8C8C05005A
:1040900003F134025968404607F0E6FB002840F07F
:1040A0008780AB689C4206D26B6803EB841393F85D
:1040B0003820002AE0D13B463246404607F080FCDB
:1040C00095F87830002B00F0A780012B40F0948009
:1040D000D5E90101002900F0FD8090F83860034621
:1040E000AEB1002440F2911702E090F8382072B18E
:1040F0004146FFF78DFD0134064610B1B84240F04D
:104100008980D5E901318C4203EB8410EDD3184648
:10411000D5E91C32984700287CD0AB68002B79D0B9
:104120006A6892F83830002B74D0002440F291165F
:1041300005E06B6803EB841292F8381079B11046F1
:104140004146FFF78BFD013410B1B04240F0C08012
:10415000AF68BC42EDD3002F00F0BA806B6893F8D3
:104160003820002462B9B3E0012A10D00134A742FC
:1041700046D96B6803EB841393F83820002A3FD0AC
:104180005A78002AF0D193F83920002AEED0184648
:10419000FFF7DEFD002840F09B80AF68E6E703F103
:1041A00034025968404607F0E1FB00283FF479AF3C
:1041B000019000F079FA0198814621E003F1340280
:1041C0005968404607F0A8FB00283FF46AAFEFE7C4
:1041D00003F134025968404607F070FB00283FF4B1
:1041E00060AFE5E703F134025968404607F032F862
:1041F00000283FF456AFDBE700F056FA4FF0010914
:10420000484602B0BDE8F08700F04EFA484602B0DA
:10421000BDE8F087B146F3E7D5E9010100295CD09C
:1042200090F838600346A6B1002440F2911702E0EE
:1042300090F838206AB14146FFF7EAFC013406469F
:1042400008B1B842E6D1D5E901318C4203EB8410C4
:10425000EED31846D5E91C3298470028DAD0AB686F
:10426000002BD7D0686890F83830002BD2D04FF0B0
:10427000000A40F2911640F2592710E093F83930C5
:1042800013B1FFF765FD18BBAB689A4504F1400414
:10429000B6D26868204490F83830002BB0D0414640
:1042A000FFF7DCFC4FEA8A140AF1010A18B1B042A8
:1042B00001D0B8420CD16B681B1906D05A78184649
:1042C000002ADBD0012ADFD1DBE74FF00B0997E7AB
:1042D000814695E703460E4619E703460E46B8E7C2
:1042E00090B1D0B50446006816461F4605F086F921
:1042F00030B132463B462046BDE8D040FFF7A4BE71
:1043000000F0D2F90120D0BD0B20704740B100234E
:10431000036043608360C360036143611846704774
:104320000B20704778B130B40346092200200024E6
:1043300000251A80C3E90A455963C3E901001863DF
:10434000188730BC70470B20704700BF2DE9F04143
:1043500086B0002843D0002B41D01C4690460E4624
:10436000074605F019FC04F10C03059093E80300DF
:104370008DE8030005A894E80E0005F00FFC054643
:1043800038BB05F009FC3946386005A805F07CFC0F
:104390000546C0B902AD284605F026F995E80300A8
:1043A0003B1D83E803003A464146304605F0ECFAEF
:1043B000054640B9FC60224607F11001032006F0D3
:1043C00097F9054608B100F06FF905A805F038FC2B
:1043D00008B100F069F9284606B0BDE8F0810B2568
:1043E000284606B0BDE8F08150B349B342B33BB3B1
:1043F0002DE9F0438FB004AD044628469846174691
:104400000E4605F0CBFC95E803000DF11C0984E88D
:104410000300484605F048FE284605F0BFFC95E835
:10442000030008F1040384E803003A46CDF8009045
:104430003146204605F0BCFC20B90FB0BDE8F08342
:104440000B207047039000F02FF900F02DF903982E
:104450000FB0BDE8F08300BF48B341B33AB333B304
:104460002DE9F0419EB01F4616460D460446FFF763
:104470008DFA0DF1100820604046FFF783FB5022B3
:104480000C4940460AF0D2FFCDF800803B46324648
:1044900029462046FFF780FA10B91EB0BDE8F0812A
:1044A000039000F001F903981EB0BDE8F0810B20E5
:1044B000704700BF600E010848B341B33AB333B34D
:1044C0002DE9F0419EB01F4616460D460446FFF703
:1044D0005DFA0DF1100820604046FFF753FB5022B3
:1044E0000C4940460AF0A2FFCDF800803B46324618
:1044F00029462046FFF750FA10B91EB0BDE8F081FA
:10450000039000F0D1F803981EB0BDE8F0810B20B5
:10451000704700BFB00E010848B341B33AB333B39C
:104520002DE9F041A0B01F4616460D46044605F0A1
:1045300041FF0DF110082060404606F045F850227A
:104540000C4940460AF072FFCDF800803B463246E7
:104550002946204605F034FF10B920B0BDE8F081AF
:10456000039000F0A1F8039820B0BDE8F0810B2083
:10457000704700BF000F010828B321B32DE9F043B5
:104580000E468BB007469046994606F09FFAF568AE
:1045900038600FCD03AC0FC42B682360129B0293CD
:1045A0003846CDE90089321D06F1100106F094FA73
:1045B00010B90BB0BDE8F083099000F075F80998C8
:1045C0000BB0BDE8F0830B20704700BF0AF0ACBE13
:1045D0000BF0F8B80AF022BF0AF018BF70B4054D0E
:1045E00006460FCD34460FC42B682360304670BC9E
:1045F000704700BF500F0108A0B1016899B130B4F5
:10460000446894B1C5685DB183688BB1094AC2E959
:104610000014C2E9023500201061012030BC70474F
:104620002846FBE7704708467047204630BC704775
:104630001846F3E70800002070B4054D06460FCD7C
:1046400034460FC42B682360304670BC704700BFEF
:104650000800002058B1036843B1436833B1C36810
:1046600023B18068003018BF01207047184670479A
:1046700008B50A48FCF722F803785BB10848FCF754
:104680001DF803780BB9012303700648FCF716F8F0
:10469000007808BD4FF0650008BD00BF1C00002079
:1046A0004C0000203C00002010B50C48FCF706F838
:1046B000002400220023C0E9022304800848FBF7FD
:1046C000FDFF034607481C70FBF7F8FF064B1B78FD
:1046D00003700648FBF7F2FF047010BD2C000020A9
:1046E0004C0000203C000020E80B01081C000020CA
:1046F000014B00201860704728DA002000287AD08B
:104700002DE9F8430368002B77D0D3E902248C42CB
:1047100038BF0C46944269D005461E6A002C56D01C
:10472000B4F1804F65D2A7003946D3F818801868D5
:104730003246C04700285CD02B68324618603946A4
:104740005868C047002854D02B68996858608C423C
:1047500048D94FEA8108D3F800C008F108020CEBF1
:10476000020600EB02090CEB080500EB08024D45C0
:1047700038BFB2426FEA010E2CBF01260026A644C4
:10478000BEF1060F94BF002606F00106002E36D0BB
:1047900045EA0206760732D1A4EB01084FEA580E2B
:1047A000083D02EBCE0E00260027E5E90267E2E8AD
:1047B00002677245F9D128F00105A84501EB050211
:1047C00010D000214CF8221040F822100AE05F6956
:1047D00018683146B8472B6831461C605868B8479E
:1047E0002B685C609C600020BDE8F8830020BDE879
:1047F000F8830A20F8E70B2070471F20F4E7ACF19C
:104800000402A8F1040817444044C44400224CF8B0
:10481000042FBC4540F8042FF9D1E3E782B0F8B586
:1048200006AC84E80C00002831D005682DB11E26A6
:104830003046BDE8F84002B07047044606A80F466F
:10484000FFF708FF18B3069B0A99242098470646ED
:10485000206010B30DF1180EBEE80F0006F1100C29
:10486000C6E90055C6E90255ACE80F00DEF8003095
:10487000CCF8003039462046FFF740FF06460028B6
:10488000D6D0079B0A99206898472560D0E70B2669
:104890003046BDE8F84002B070470A26C8E700BFBE
:1048A0002DE9F84300283BD00468002C35D0A368DC
:1048B00006463BB300252168A84651F8252010463E
:1048C000EAB1D4F8209067694946B847D4E9002393
:1048D00042F82580494653F82500B847E3686268E6
:1048E000013B42F82580E3603468A36801359D42AE
:1048F00008D2216851F825201046002AE1D101355F
:104900009D42DAD300213046FFF7F8FE044620B975
:1049100030684369016A984734602046BDE8F883EF
:104920000B242046BDE8F8832DE9F84F10B3046846
:104930000CB3F9B1D4F808A02768BAF1000F19D068
:1049400091460E46043F002557F8048F4FEA850B29
:1049500040460135B8F1000F0AD0FBF753FC814502
:104960004A46414638BF024630460AF0ACFF28B1FD
:10497000AA45E9D100242046BDE8F88F636853F8C2
:104980000B402046BDE8F88F30B32DE9704885B064
:10499000064669460020FEF7FBFBDDE90045002CDA
:1049A00075F1000314DB029900290EDB0B48A4FB10
:1049B00000BC00FB05CC1BEB01024CEBE1730020BB
:1049C000C6E9002305B0BDE8708854EA0503EDD1BF
:1049D000022005B0BDE870880B20704700CA9A3BE2
:1049E00030B32DE9704885B0064669460120FEF7D0
:1049F000CFFBDDE90045002C75F1000314DB0299C3
:104A000000290EDB0B48A4FB00BC00FB05CC1BEB14
:104A100001024CEBE1730020C6E9002305B0BDE8BC
:104A2000708854EA0503EDD1022005B0BDE8708816
:104A30000B20704700CA9A3B00207047C8B1C1B133
:104A40002DE9F843054617460E46FBF7DBFB48B158
:104A50002B782F2B0FD0022333603FB1002038601A
:104A6000BDE8F88301233360002FF7D10020BDE8B3
:104A7000F8830B20704700F1FF3C15F80C302F2B0A
:104A800039D06C1E2B4604EB0009C5F1010E0EEB6C
:104A9000040814F8011F21F02002413A192AA1F15B
:104AA0002F050BD95F2909D00A2D07D904233360BC
:104AB000002FDBD0C7F800800020D1E7A145E6D168
:104AC000194D002203E0884203F101031BD0511C61
:104AD00094450A46F7D01C782F2CF4D15C782F2C03
:104AE0001DD0645D6407EED506233360002FBDD072
:104AF00039600020B4E703233360002FB6D0C7F835
:104B000000C00020ACE7F72802D800203060A7E7FB
:104B100007233360002FA9D0F6233B60A6E70523C7
:104B20003360002FE4D1A1E73D17010870B4DDE93F
:104B3000035662B15BB155B14EB1064C2070C4E969
:104B40000112C4E903356661002070BC70470B2078
:104B500070BC704760DC0020C96F02F0B9BD00BFB7
:104B600000283FD000293DD070B504468EB00068C3
:104B70000D4600F0A3FC002847D06668002E44D004
:104B8000B469284623699847F369059013B105A8CD
:104B900098470598D6F880301B6900907269B16F0C
:104BA00003F5287006AB03F095FBE8B1A36828462F
:104BB00006A99847336A04460BB106A89847D6F869
:104BC000802096F87A301069012B00F528701FD0EC
:104BD000F16F02F07DFD0440E4B284F00100C0B248
:104BE0000EB070BD01207047D6F880300A4A1869AF
:104BF000059B0093CDE9012600F528707269B16F1D
:104C000006AB03F097FB0028D0D101200EB070BD99
:104C100002F0A2F9E1E700BF594B00082DE9F04F7F
:104C200087B0002800F0CB80002900F0C88004463F
:104C30000068984615460E4600F040FC002800F03B
:104C4000BE80002D00F0BB802B78002B00F0B780D9
:104C5000B8F1000F00F0B3805B48D4F8049007F07F
:104C600027FB002800F0AB80C468C4F8884007F038
:104C700089FB04F1980AC4F88400C4F88CA0284683
:104C8000FBF7C0FA01303C2804F1840700F2908061
:104C90002B464E4A3C2150460AF0ACFD4FF47A7345
:104CA000C4E91F394146502204F128000AF0BEFB36
:104CB00098F808304649022BD9F810300CBFD3F8C9
:104CC0007C33D3F87833A36700233046C4E9073335
:104CD00000F002FC00286BD04268A261002A67D075
:104CE00029464346484607F09BFD6062002863D092
:104CF000D9F8102041F298530321D05A451CD552BF
:104D000001F0E0FFD9F81030D4F88020D3F88433D4
:104D1000126920614FF0060ACDF800A01968D9F891
:104D2000143002F52870226901F080FED9F8105085
:104D30000246D5F88C33D5F88413284600F040FBA2
:104D4000B0B3D9F8102041F29A530521D05A451C2E
:104D5000D55201F0B7FFD4F88020D9F8103015698A
:104D6000606104AE41463046D3F88483D4F824B061
:104D700000F040FB96E80300CDF80CA00190ADF8E0
:104D80000810DBF81030009305F52875D4E90432DB
:104D9000D8F80010284601F0A7FED9F810500246B6
:104DA000D5F88C33D5F88413284600F009FB38B9C0
:104DB000606A08B100F00EFA384600F0B3F9002737
:104DC000384607B0BDE8F08F90DC00209C0F01084A
:104DD000680F010850B149B108B503460846596843
:104DE000502228310AF022FB002008BD0B2070471A
:104DF0002DE9F04128B1044600680D4600F05EFB45
:104E000018B901242046BDE8F0816368002BF8D072
:104E1000002DF6D0286800F051FB0028F1D06C6816
:104E2000002CEED0606AD4F8806007F049FDD4F819
:104E3000803062691869D0F8883300F528701968E5
:104E400001F042FDD4F88030226980461869D0F81C
:104E5000883300F52870196801F036FD074630697F
:104E60004246D0F89033D0F8881300F0A9FA0446EF
:104E700030693A46D0F89033D0F8881300F0A0FAA1
:104E80002CB120B10024284600F04CF9BAE70224E6
:104E9000F9E700BFB2B1F8B5077A97B9C0E9007772
:104EA0000C46C8230121054603FB0246C36001727C
:104EB0002146284607F00CFAE46004F8C87BA642B5
:104EC000F6D1F8BD704700BFB2B1F8B5077A97B90F
:104ED000C0E900770C46C8230121054603FB0246C2
:104EE000C36001722146284607F0F2F9E46004F835
:104EF000C87BA642F6D1F8BD704700BFB2B1F8B585
:104F0000077A97B9C0E900770C46D82301210546F6
:104F100003FB0246C36001722146284607F0D8F918
:104F2000E46004F8D87BA642F6D1F8BD704700BF14
:104F3000B2B1F8B5077A97B9C0E900770C46D0232B
:104F40000121054603FB0246C36001722146284643
:104F500007F0BEF9E46004F8D07BA642F6D1F8BDB4
:104F6000704700BFB2B1F8B5077A97B9C0E90077CA
:104F70000C46A4230121054603FB0246C3600172CF
:104F80002146284607F0A4F9E46004F8A47BA64271
:104F9000F6D1F8BD704700BFD2B12DE9F041077AD4
:104FA000A7B9C0E9007741F2A8530C460121054694
:104FB00003FB0246C360984601722146284607F06B
:104FC00087F9E46027704444A642F6D1BDE8F08139
:104FD000704700BFC2B1F8B5077AA7B9C0E900773A
:104FE0000C46C2EBC20201211C23064604EB8205DB
:104FF0000172C3602146304607F06AF9E46004F8A4
:105000001C7BA542F6D1F8BD704700BFD2B1F8B500
:10501000077AB7B9C0E900770C4602EB42120121CA
:105020004FF40463064604EB82150172C360214607
:10503000304607F04DF9E460277004F50464A5429A
:10504000F5D1F8BD704700BFB2B1F8B5077A97B98E
:10505000C0E900770C462C230121054603FB0246DC
:10506000C36001722146284607F032F9E46004F873
:105070002C7BA642F6D1F8BD704700BFC2B1F8B58F
:10508000077AA7B9C0E900770C46C2EBC20201213A
:105090001C23064604EB82050172C360214630469C
:1050A00007F016F9E46004F81C7BA542F6D1F8BDC0
:1050B000704700BFB2B1F8B5077A97B9C0E9007779
:1050C0000C4620230121054604EB42160172C36001
:1050D0002146284607F0FCF8E46004F8207BA6424D
:1050E000F6D1F8BD704700BF0146014807F0F0B89F
:1050F000FC02012038B50446006828B1074B196846
:10510000FBF776F840B92060616829B100250D6190
:10511000034807F0DDF8656038BD00BF08150108D9
:105120005C02012010B50446006828B1064B1968DE
:10513000FBF75EF838B92060616821B1034807F0D9
:10514000C7F80023636010BD0815010890DC00203B
:1051500010B50446006828B1064B1968FBF748F8FB
:1051600038B92060616821B1034807F0B1F8002325
:10517000636010BD08150108C003012010B5044686
:10518000006828B1064B1968FBF732F838B920607F
:10519000616821B1034807F09BF80023636010BDEC
:1051A00008150108B003012010B50446006828B1B5
:1051B000064B1968FBF71CF838B92060616821B10B
:1051C000034807F085F80023636010BD0815010847
:1051D00050DE002010B501460446034807F078F879
:1051E0000023A36110BD00BFEC02012082B070B4A7
:1051F000234903AC84E80C000968049D00293DD0D4
:105200000B460024DA689B68D2F81428904208BF45
:105210000134002BF6D19DF80C30032B29D8DFE8A0
:1052200003F00A0A020A0DB1A54222D970BC144843
:1052300002B007F03DB8002DF8D0A542F6D8C1B1B4
:1052400000264FF0FF346FF0004501E0896889B116
:10525000CB68D3F814289042F8D103F61803D3E9A9
:105260000023A24273EB050CF0DA14461D460E46ED
:10527000ECE70026304670BC02B070470C46CAE727
:1052800080DC0020124B1B68FBB1F0B44FF0000C27
:105290004FF0FF346FF0004501E09B6893B1DA688E
:1052A000D2F814188842F8D102F61802D2E9006741
:1052B000A64277EB0502F0DA9C469B6834463D46F1
:1052C000002BECD16046F0BC70471846704700BF19
:1052D00080DC0020000000002DE9F04FDFF8DC80CA
:1052E000D8F8004085B008F0BDF8002C5CD08246AC
:1052F0008B46CDF80C8023E0032B3FD00022002307
:10530000CDE900230120002105F6180C009BA568BB
:10531000DCE90089C218019B41EB030312EB08068C
:1053200043EB0907564577EB0B0303DBC2457BEBE9
:10533000090303DA2146039806F0CAFF2C469DB301
:10534000E56895F82038042B18D0052BD4D1D5F872
:105350001418D1E9122390469946CDE9002358EA62
:105360000903D1E9140116D0134B03FB09FEA8FB76
:105370000323CDE9002373440193C5E7D5F814183E
:10538000D1E91023CDE900239046994658EA090354
:10539000D1E91201E8D150EA010302BF04A3D3E925
:1053A0000023CDE90023AFE705B0BDE8F08F00BFD3
:1053B00000AC23FC0600000000CA9A3B80DC002001
:1053C00010B58C7886B0012CADF80E2000F5287051
:1053D0000AD00122194600920DF117030DF10E02B9
:1053E00002F09CF906B010BD01F0B6FD204606B0F3
:1053F00010BD00BF30B40D7A0C784A7A898881805C
:10540000A5F10205A4F10204022AB5FA85F5B4FA61
:1054100084F44FEA55154FEA541418BF0022457022
:105420008470027030BC7047F0B500230B700368C5
:1054300087B01446D3B10F4D2F460F4A0F4E406828
:10544000049005920846CDE90162039500970C4A45
:1054500021460AF0CFF9002805DB8442D4BF0020A2
:10546000012007B0F0BD002007B0F0BD054B014D95
:105470001F46E2E78C0F0108A00F0108A40F0108E6
:10548000900F0108F80C010810B582B00B4600908F
:10549000114618461446074B074A0AF0ABF9002894
:1054A00005DB8442D4BF0020012002B010BD0020E3
:1054B00002B010BDB00F0108A80F010858B110B517
:1054C000044606F05FFF01462046FAF791FEB0FA67
:1054D00080F0400910BD70478368184710B5044636
:1054E0000068FAF785FE00280CBF2046002010BD9A
:1054F00000F086B800B583B0012300210DF107004C
:105500008DF8073000F0D0F803B05DF804FB00BF61
:1055100070B5054668B10C4600F076F8261830469E
:10552000042101F00BF9EB68C4F105041C4420448C
:10553000304470BDF0B583B0E9B10C46054600F0CB
:10554000C7F843682146DB68284698472769A16861
:1055500001AB3A46284601F071F9019B064620B995
:105560009F420CD3304603B0F0BD03B1013B30463F
:10557000E36003B0F0BD0E46304603B0F0BD01213C
:10558000A8756975E060284601F0EEF82846019993
:1055900001F022F9304603B0F0BD00BFF8B170B59C
:1055A00004460D4600F094F8436829469B6820465F
:1055B0009847A66856B13046FAF724FE3146E060B7
:1055C000421C2846BDE8704001F026B93046E06034
:1055D000324631462846BDE8704001F01DB970479B
:1055E00038B5044650B1002100F00EF804210546FC
:1055F00001F0A4F8E36805332B44184438BD00BF1C
:10560000004870475C00002080B138B50D46284640
:10561000042101F093F82C1D04442046042101F0DC
:105620008DF8C5F104052844204438BD704700BFFB
:1056300038B50C4641B1054600F092FF211D2846C1
:10564000BDE8384000F0E2BB084638BD60B138B56F
:105650000C4605460168204600F0E0FE69682046D9
:10566000BDE8384000F098BA704700BF60B110B58F
:105670000421002001F062F8041D2046042101F0FD
:105680005DF80430204410BD704700BF10B5042100
:10569000002001F053F8041D2046042101F04EF8CB
:1056A0000430204410BD00BF38B50C460123037000
:1056B0000421204601F042F8251D05442846042116
:1056C00001F03CF8C4F104042044284438BD00BF74
:1056D000004870478400002038B50D46012104467B
:1056E00000F0E2FF48B1A3681D70A268236901328F
:1056F00001330121A26023616175A07D80F001006A
:1057000038BD00BF38B50D460121044600F0CCFF7E
:1057100068B1A268236912F8011B003103F101038B
:1057200018BF012101202970A26023616075A07D4E
:1057300080F0010038BD00BF38B50D460121044698
:1057400000F0B2FF48B1A3681D70A268236901325E
:1057500001330121A26023616175A07D80F0010009
:1057600038BD00BF38B50D460121044600F09CFF4E
:1057700050B1A3681B782B70A268236901320133F2
:105780000121A26023616175A07D80F0010038BD18
:105790002DE9F04182B00446ADF80610022100F078
:1057A000D5FF01462046677D01F016F8204602210C
:1057B00000F06EFFC0B1227DA368012A50D09DF891
:1057C00007201A70A3689DF806205A70A268236902
:1057D000023202330221A26023616175A07D80F054
:1057E000010002B0BDE8F081D4E90156B54225D9E7
:1057F0002269A560AD1B2A44C5F102082261414619
:10580000204600F051FF78B3237D012B40D09DF856
:10581000073033709DF80630002D32D07370236945
:10582000A268A07D02335B1B4244022180F001008C
:105830002361A260617502B0BDE8F08102212046BB
:1058400000F032FF0028C9D0237DA268012B1BD0B5
:105850009DF807301370A3689DF806205A70B5E7CD
:10586000BDF806201A80B1E7A2682369A07D67759C
:10587000521B5B1B80F00100A260236102B0BDE8F7
:10588000F081A2681370CAE7BDF8063013809DE767
:1058900030460DF1060631462A4609F0C7FD42465C
:1058A0007119A06809F0C2FDB9E700BF2DE9F04306
:1058B00083B00E4602210446ADF8062000F046FFF4
:1058C0000146204694F8158000F086FF204602210C
:1058D00000F0DEFE70BBD4E90157BD4225D9226934
:1058E000A560ED1B2A44C5F1020922614946204604
:1058F00000F0DAFE002839D0012E48D09DF807309C
:105900003B709DF80630002D3ED07B702369A26865
:10591000A07D02335B1B4A44022180F00100236119
:10592000A260617503B0BDE8F0830221204600F05B
:10593000BBFE88B1012EA36814D09DF807201A7011
:10594000A3689DF806205A70A268236902320233C8
:105950000221A26023616175A07D80F0010003B087
:10596000BDE8F083BDF806201A80EDE7A268236940
:10597000A07D84F81580521B5B1B80F00100A260A3
:10598000236103B0BDE8F083A2681370BEE70DF198
:10599000060631462A46384609F048FD4A4671193E
:1059A000A06809F043FDB1E72DE9F8430E46022156
:1059B000044600F0CBFE0146204694F8158000F026
:1059C0000BFF2046022100F063FEA8B1227DA368F0
:1059D000012A48D05B783370A3681B787370A26883
:1059E0002369023202330221A26023616175A07D26
:1059F00080F00100BDE8F883D4E90157BD4222D907
:105A00002269A560ED1B2A44C5F1020922614946BD
:105A1000204600F049FE48B3237D012B3AD07B7825
:105A20003370002D2FD03B7873702369A268A07D5E
:105A3000022102335B1B4A4461752361A26080F03E
:105A40000100BDE8F8830221204600F02DFE002869
:105A5000CDD0237DA268012B19D053783370A36871
:105A60001B787370BBE71B883380B8E7A268236993
:105A7000A07D84F81580521B5B1BA260236180F01F
:105A80000100BDE8F883A3681B787370CDE7138825
:105A90003380A4E739462A46304609F0C7FC4A4617
:105AA0007019A16809F0C2FCBFE700BF2DE9F047FB
:105AB0000F4602210446164600F048FE01462046E5
:105AC00094F8159000F088FE2046022100F0E0FDD9
:105AD00070BBD4E90158454525D92269A560A5EBDD
